:02000000B52A1F
:100006008312031335089300831614180C28000076
:0A001600072883121308F000080009
:10002000831203133508930083161418192800004F
:0A003000142883121308F0000800E2
:10003A008312031307112230FC001C30FD00FD0B54
:10004A002428FC0B2428000009152230FC001C304F
:10005A00FD00FD0B2E28FC0B2E28000009110800BC
:10006A001D203308B50010202230FC001C30FD0092
:10007A00FD0B3D28FC0B3D2800003408B500032089
:02008A0008006C
:10008C00831203131A08F100981C4E281812181624
:06009C007108F0000800ED
:0E00A2000030831203138C1A0130F0000800A6
:1000B00083160313871287110716831294014030A9
:0A00C00083169400831294160800C2
:0E00CA008312031322088A0021088200080016
:1000D8008312031332082F05F2007208AF003108AB
:1000E800F1003008F000710803197E28F00D701037
:1000F800FF3E78287008B0007208F0047008AF005E
:020108000800ED
:10010A00831603130716871209110711871158203E
:02011A000800DB
:10011C002030831203132F04B3003008B4003520B1
:02012C000800C9
:10012E0083120313B301FF30B40035202030B30027
:10013E0003307004B40035206330FD00FD0BA5289C
:0A014E00000000005230A00008007D
:10015800223083120313FC001C30FD00FD0BB22873
:10016800FC0BB228000009152230FC001C30FD00F1
:0E017800FD0BBC28FC0BBC2800000911080080
:100186001D3083120313B300FF30B40035203D3019
:10019600B30004307004B40035202008543A031D1F
:1001A600D528AF011C30B300FF30B40035203C30F9
:1001B600B3002F08F2000130F10072080319E72896
:1001C600F10D7110FF3EE12871087004B40035206E
:0201D60008001F
:1001D8001D20A030B5001020B1012F0831020318EE
:1001E800FD28300884000008B5001020B00AB10AC4
:0601F800F12807150800C4
:1001FE0083120313B301FF30B40035207008B00032
:10020E002F08003A031D14292030B300FD303005AD
:10021E00B40035204430A0001C292030B300023039
:0C022E003004B40035205530A00008005A
:0E023A0051207008031D22291D2946200800AE
:1002480083120313B301FF30B40035202030B3000C
:10025800FE307005B40035206330FD00FD0B3229F7
:0A026800000000005430A000080060
:10027200233083120313B30002302B02B400352063
:100282001D203030B5001020AD012B082D020318BF
:1002920052292C0884000008B5001020AC0AAD0ACF
:0402A20046290800E1
:1002A6000430831203132B0203186C290630B300A3
:1002B600FF30B40035207008AF002B08B0000130C5
:1002C600B100F930B2006C202630B3007008B400DB
:0402D60035200800C7
:1002DA00831203132B08AF00C3201D30B300FF3075
:1002EA00B40035203D30B30002307004B40035202C
:1002FA001D20A8302B04B5001020AE012C082E02B8
:10030A0003188F292D0884000008B5001020AD0AB3
:06031A00AE0A8329080071
:1003200085201130AF000130B0008E2097200130C1
:08033000AF00FF2007150800D3
:10033800063083120313B300FF30B4003520700871
:10034800AF002B08B000B101FE30B2006C2026309F
:0A035800B3007008B400352008005F
:100362001D2020302B04B50010202230FC001C3050
:10037200FD00FD0BBA29FC0BBA290000AE012C08C6
:100382002E020318D5292D0884000008B50010207C
:10039200AD0A2230FC001C30FD00FD0BCE29FC0B07
:0A03A200CE290000AE0AC0290800B1
:1003AC0065208A110A128000840AA10A0319A20A84
:0803BC00F003031DD62908001F
:1003C400A53083120313AB00852024210130AF0034
:1003D400FF2007152B30AF000130B000EC200800DF
:1003E400013083120313B300FF30B40035202130F1
:1003F400B3002B08F2000130F10072080319062A39
:10040400F10D7110FF3E002AF10971087005B40066
:040414003520080087
:0A041800AC20FF30B50003200800FF
:100422007E30831203132B0203181C2A2530B300DB
:080432002B08B400352008007E
:10043A0083120313AD012C082D0203182E2A2D084E
:10044A002B07AE001D212E08840070088000AD0A1B
:04045A00202A08004C
:10045E00013083120313B300FF30B4003520213076
:10046E00B3002B08F2000130F10072080319432A81
:10047E00F10D7110FF3E3D2A71087004B400352055
:02048E00080064
:1004900083120313B301FF30B40035207008AC00A1
:1004A0002B08013A031D5B2A2030B300FB302C05DA
:1004B000B4003520612A2030B30004302C04B4008D
:0404C00035200800DB
:1004C400233083120313B30002302B02B40035200F
:0204D40008001E
:1004D6008316031398169030831298008316871795
:1004E600071383128C1E7A2A1A08F000742A080051
:1004F600831203132B08F000F00D7010F00D70102E
:10050600F00D7010F00D70107008AB002430B300C1
:0A0516002C087004B4003520080022
:10052000063083120313B300FF30B4003520700887
:10053000AC002B08023A031DA42A2630B300083071
:100540002C04B4003520AA2A2630B300F7302C053D
:06055000B4003520080094
:10055600831603139818B12A0000AB2A83122B08BE
:0405660099000800F0
:10056A003A2483120313A601A701A801A901AA012B
:10057A00043083169F0007309C0088118312881567
:10058A0003308316990018156B220230FB000430E1
:10059A00FC00BA30FD00FD0BD02AFC0BD02AFB0B65
:1005AA00D02A0000BC30AB00AB22CB30AB00AB2270
:1005BA001D217008A300B92B1D217008A400700822
:1005CA00B50010202D2C1D217008A4007008B5005C
:1005DA0003207008AB00AB222D2C07112D2C071518
:1005EA002D2C1D202D2CAC202D2C85202D2C0C22C1
:1005FA007008AB00AB222D2C1D217008A4001D2110
:10060A007008A5002408B3007008B4003520071547
:10061A007008AB00AB222D2C1D217008A4007008B5
:10062A00AF00FF202D2C1D217008A4007008AB001C
:10063A0090222D2C1D217008A4007008AB001122F5
:10064A002D2C1D217008A4007008AB0048222D2C07
:10065A001D217008A4007008AF00C3202D2C1D2195
:10066A007008A4007008AB0062222D2C1D217008AE
:10067A00A4001D217008A5002630AB007008AC004C
:10068A001D222408AB002508AC002630AD00B1219C
:10069A002D2C97202D2C1D217008A4007008AB006A
:1006AA009C212D2C1D217008A4001D217008A50075
:1006BA002630AB007008AC001D222408AB002508C8
:1006CA00AC002630AD006D212D2C1D217008A40030
:1006DA001D217008A5002408AF007008B0008E2004
:1006EA002D2C24212D2C1D217008A4002630AB00AE
:1006FA007008AC001D222408AF002630B000EC20A0
:10070A002D2C1D217008A4001D217008A5002408A5
:10071A00AB007008AC007B222D2C1D217008A400B0
:10072A007008AB00F2212D2C1D217008A40070085E
:10073A00AB002F222D2C1D217008A4002630AB00FF
:10074A007008AC001D222408AB002630AC00392109
:10075A002D2C1D217008A4007008AB0053212D2CEC
:10076A0090212D2CE2212D2C2308313A0319E12A5C
:10077A002308323A0319E82A2308333A0319F22ADA
:10078A002308343A0319F42A2308353A0319F62AB6
:10079A002308363A0319F82A2308613A0319FA2A70
:1007AA002308623A0319FC2A2308633A0319012B26
:1007BA002308643A0319112B2308653A0319182BE5
:1007CA002308663A03191F2B2308673A0319262BB5
:1007DA002308683A03192D2B2308693A0319342B85
:1007EA0023086A3A03193B2B23086B3A03194E2B49
:1007FA0023086C3A0319502B23086D3A0319572B17
:10080A0023086E3A03196A2B23086F3A0319762BC9
:10081A002308703A0319782B2308713A0319862B97
:10082A002308723A0319922B2308733A0319992B56
:10083A002308743A0319A02B2308753A0319AE2B1F
:10084A002308763A0319B52B2308773A0319B72BED
:0C085A002308AB00AB22A301DD2A322CE6
:1008740020308400013083120313F0003830A100CB
:080884000430A200D621080097
:0208700044340E
:02400E004A2F37
:00000001FF
